{
  "contractName": "Voting",
  "abi": [
    {
      "inputs": [
        {
          "internalType": "uint256",
          "name": "_electionDurationMinutes",
          "type": "uint256"
        }
      ],
      "stateMutability": "nonpayable",
      "type": "constructor"
    },
    {
      "inputs": [
        {
          "internalType": "uint256",
          "name": "",
          "type": "uint256"
        }
      ],
      "name": "candidates",
      "outputs": [
        {
          "internalType": "uint256",
          "name": "id",
          "type": "uint256"
        },
        {
          "internalType": "string",
          "name": "name",
          "type": "string"
        },
        {
          "internalType": "uint256",
          "name": "voteCount",
          "type": "uint256"
        }
      ],
      "stateMutability": "view",
      "type": "function",
      "constant": true
    },
    {
      "inputs": [],
      "name": "electionAdmin",
      "outputs": [
        {
          "internalType": "address",
          "name": "",
          "type": "address"
        }
      ],
      "stateMutability": "view",
      "type": "function",
      "constant": true
    },
    {
      "inputs": [],
      "name": "electionEndTime",
      "outputs": [
        {
          "internalType": "uint256",
          "name": "",
          "type": "uint256"
        }
      ],
      "stateMutability": "view",
      "type": "function",
      "constant": true
    },
    {
      "inputs": [],
      "name": "electionEnded",
      "outputs": [
        {
          "internalType": "bool",
          "name": "",
          "type": "bool"
        }
      ],
      "stateMutability": "view",
      "type": "function",
      "constant": true
    },
    {
      "inputs": [
        {
          "internalType": "address",
          "name": "",
          "type": "address"
        }
      ],
      "name": "voters",
      "outputs": [
        {
          "internalType": "bool",
          "name": "isRegistered",
          "type": "bool"
        },
        {
          "internalType": "bool",
          "name": "hasVoted",
          "type": "bool"
        },
        {
          "internalType": "uint256",
          "name": "votedCandidateId",
          "type": "uint256"
        }
      ],
      "stateMutability": "view",
      "type": "function",
      "constant": true
    },
    {
      "inputs": [
        {
          "internalType": "address",
          "name": "_voter",
          "type": "address"
        }
      ],
      "name": "registerVoter",
      "outputs": [],
      "stateMutability": "nonpayable",
      "type": "function"
    },
    {
      "inputs": [
        {
          "internalType": "string",
          "name": "_name",
          "type": "string"
        }
      ],
      "name": "addCandidate",
      "outputs": [],
      "stateMutability": "nonpayable",
      "type": "function"
    },
    {
      "inputs": [
        {
          "internalType": "uint256",
          "name": "_candidateId",
          "type": "uint256"
        }
      ],
      "name": "vote",
      "outputs": [],
      "stateMutability": "nonpayable",
      "type": "function"
    },
    {
      "inputs": [],
      "name": "endElection",
      "outputs": [],
      "stateMutability": "nonpayable",
      "type": "function"
    },
    {
      "inputs": [],
      "name": "getWinner",
      "outputs": [
        {
          "internalType": "string",
          "name": "winnerName",
          "type": "string"
        }
      ],
      "stateMutability": "view",
      "type": "function",
      "constant": true
    }
  ],
  "bytecode": "0x60806040523480156200001157600080fd5b506040516200172a3803806200172a8339818101604052810190620000379190620000fb565b336000806101000a81548173ffffffffffffffffffffffffffffffffffffffff021916908373ffffffffffffffffffffffffffffffffffffffff160217905550603c816200008691906200015c565b42620000939190620001bd565b6003819055506000600460006101000a81548160ff021916908315150217905550506200021a565b600080fd5b6000819050919050565b620000d581620000c0565b8114620000e157600080fd5b50565b600081519050620000f581620000ca565b92915050565b600060208284031215620001145762000113620000bb565b5b60006200012484828501620000e4565b91505092915050565b7f4e487b7100000000000000000000000000000000000000000000000000000000600052601160045260246000fd5b60006200016982620000c0565b91506200017683620000c0565b9250817fffffffffffffffffffffffffffffffffffffffffffffffffffffffffffffffff0483118215151615620001b257620001b16200012d565b5b828202905092915050565b6000620001ca82620000c0565b9150620001d783620000c0565b9250827fffffffffffffffffffffffffffffffffffffffffffffffffffffffffffffffff038211156200020f576200020e6200012d565b5b828201905092915050565b611500806200022a6000396000f3fe608060405234801561001057600080fd5b506004361061009e5760003560e01c806359f784681161006657806359f78468146101475780638e7ea5b2146101515780639e136e641461016f578063a3ec138d1461018d578063c94ca9e3146101bf5761009e565b80630121b93f146100a35780630aa05677146100bf5780633477ee2e146100dd57806338db6dd31461010f578063462e91ec1461012b575b600080fd5b6100bd60048036038101906100b89190610be2565b6101dd565b005b6100c7610467565b6040516100d49190610c50565b60405180910390f35b6100f760048036038101906100f29190610be2565b61048b565b60405161010693929190610d13565b60405180910390f35b61012960048036038101906101249190610d7d565b61054d565b005b61014560048036038101906101409190610edf565b6106c8565b005b61014f6107d8565b005b610159610918565b6040516101669190610f28565b60405180910390f35b610177610a98565b6040516101849190610f4a565b60405180910390f35b6101a760048036038101906101a29190610d7d565b610a9e565b6040516101b693929190610f80565b60405180910390f35b6101c7610ae2565b6040516101d49190610fb7565b60405180910390f35b600354421115610222576040517f08c379a00000000000000000000000000000000000000000000000000000000081526004016102199061101e565b60405180910390fd5b600160003373ffffffffffffffffffffffffffffffffffffffff1673ffffffffffffffffffffffffffffffffffffffff16815260200190815260200160002060000160009054906101000a900460ff166102b1576040517f08c379a00000000000000000000000000000000000000000000000000000000081526004016102a89061108a565b60405180910390fd5b600160003373ffffffffffffffffffffffffffffffffffffffff1673ffffffffffffffffffffffffffffffffffffffff16815260200190815260200160002060000160019054906101000a900460ff1615610341576040517f08c379a0000000000000000000000000000000000000000000000000000000008152600401610338906110f6565b60405180910390fd5b6002805490508110610388576040517f08c379a000000000000000000000000000000000000000000000000000000000815260040161037f90611162565b60405180910390fd5b60018060003373ffffffffffffffffffffffffffffffffffffffff1673ffffffffffffffffffffffffffffffffffffffff16815260200190815260200160002060000160016101000a81548160ff02191690831515021790555080600160003373ffffffffffffffffffffffffffffffffffffffff1673ffffffffffffffffffffffffffffffffffffffff168152602001908152602001600020600101819055506002818154811061043d5761043c611182565b5b9060005260206000209060030201600201600081548092919061045f906111e0565b919050555050565b60008054906101000a900473ffffffffffffffffffffffffffffffffffffffff1681565b6002818154811061049b57600080fd5b90600052602060002090600302016000915090508060000154908060010180546104c490611257565b80601f01602080910402602001604051908101604052809291908181526020018280546104f090611257565b801561053d5780601f106105125761010080835404028352916020019161053d565b820191906000526020600020905b81548152906001019060200180831161052057829003601f168201915b5050505050908060020154905083565b60008054906101000a900473ffffffffffffffffffffffffffffffffffffffff1673ffffffffffffffffffffffffffffffffffffffff163373ffffffffffffffffffffffffffffffffffffffff16146105db576040517f08c379a00000000000000000000000000000000000000000000000000000000081526004016105d2906112fa565b60405180910390fd5b600160008273ffffffffffffffffffffffffffffffffffffffff1673ffffffffffffffffffffffffffffffffffffffff16815260200190815260200160002060000160009054906101000a900460ff161561066b576040517f08c379a000000000000000000000000000000000000000000000000000000000815260040161066290611366565b60405180910390fd5b60018060008373ffffffffffffffffffffffffffffffffffffffff1673ffffffffffffffffffffffffffffffffffffffff16815260200190815260200160002060000160006101000a81548160ff02191690831515021790555050565b60008054906101000a900473ffffffffffffffffffffffffffffffffffffffff1673ffffffffffffffffffffffffffffffffffffffff163373ffffffffffffffffffffffffffffffffffffffff1614610756576040517f08c379a000000000000000000000000000000000000000000000000000000000815260040161074d906112fa565b60405180910390fd5b600260405180606001604052806002805490508152602001838152602001600081525090806001815401808255809150506001900390600052602060002090600302016000909190919091506000820151816000015560208201518160010190805190602001906107c8929190610af5565b5060408201518160020155505050565b60008054906101000a900473ffffffffffffffffffffffffffffffffffffffff1673ffffffffffffffffffffffffffffffffffffffff163373ffffffffffffffffffffffffffffffffffffffff1614610866576040517f08c379a000000000000000000000000000000000000000000000000000000000815260040161085d906112fa565b60405180910390fd5b600460009054906101000a900460ff16156108b6576040517f08c379a00000000000000000000000000000000000000000000000000000000081526004016108ad906113d2565b60405180910390fd5b6003544210156108fb576040517f08c379a00000000000000000000000000000000000000000000000000000000081526004016108f29061143e565b60405180910390fd5b6001600460006101000a81548160ff021916908315150217905550565b6060600460009054906101000a900460ff16610969576040517f08c379a0000000000000000000000000000000000000000000000000000000008152600401610960906114aa565b60405180910390fd5b6000805b600280549050811015610a9357816002828154811061098f5761098e611182565b5b9060005260206000209060030201600201541115610a8057600281815481106109bb576109ba611182565b5b9060005260206000209060030201600201549150600281815481106109e3576109e2611182565b5b906000526020600020906003020160010180546109ff90611257565b80601f0160208091040260200160405190810160405280929190818152602001828054610a2b90611257565b8015610a785780601f10610a4d57610100808354040283529160200191610a78565b820191906000526020600020905b815481529060010190602001808311610a5b57829003601f168201915b505050505092505b8080610a8b906111e0565b91505061096d565b505090565b60035481565b60016020528060005260406000206000915090508060000160009054906101000a900460ff16908060000160019054906101000a900460ff16908060010154905083565b600460009054906101000a900460ff1681565b828054610b0190611257565b90600052602060002090601f016020900481019282610b235760008555610b6a565b82601f10610b3c57805160ff1916838001178555610b6a565b82800160010185558215610b6a579182015b82811115610b69578251825591602001919060010190610b4e565b5b509050610b779190610b7b565b5090565b5b80821115610b94576000816000905550600101610b7c565b5090565b6000604051905090565b600080fd5b600080fd5b6000819050919050565b610bbf81610bac565b8114610bca57600080fd5b50565b600081359050610bdc81610bb6565b92915050565b600060208284031215610bf857610bf7610ba2565b5b6000610c0684828501610bcd565b91505092915050565b600073ffffffffffffffffffffffffffffffffffffffff82169050919050565b6000610c3a82610c0f565b9050919050565b610c4a81610c2f565b82525050565b6000602082019050610c656000830184610c41565b92915050565b610c7481610bac565b82525050565b600081519050919050565b600082825260208201905092915050565b60005b83811015610cb4578082015181840152602081019050610c99565b83811115610cc3576000848401525b50505050565b6000601f19601f8301169050919050565b6000610ce582610c7a565b610cef8185610c85565b9350610cff818560208601610c96565b610d0881610cc9565b840191505092915050565b6000606082019050610d286000830186610c6b565b8181036020830152610d3a8185610cda565b9050610d496040830184610c6b565b949350505050565b610d5a81610c2f565b8114610d6557600080fd5b50565b600081359050610d7781610d51565b92915050565b600060208284031215610d9357610d92610ba2565b5b6000610da184828501610d68565b91505092915050565b600080fd5b600080fd5b7f4e487b7100000000000000000000000000000000000000000000000000000000600052604160045260246000fd5b610dec82610cc9565b810181811067ffffffffffffffff82111715610e0b57610e0a610db4565b5b80604052505050565b6000610e1e610b98565b9050610e2a8282610de3565b919050565b600067ffffffffffffffff821115610e4a57610e49610db4565b5b610e5382610cc9565b9050602081019050919050565b82818337600083830152505050565b6000610e82610e7d84610e2f565b610e14565b905082815260208101848484011115610e9e57610e9d610daf565b5b610ea9848285610e60565b509392505050565b600082601f830112610ec657610ec5610daa565b5b8135610ed6848260208601610e6f565b91505092915050565b600060208284031215610ef557610ef4610ba2565b5b600082013567ffffffffffffffff811115610f1357610f12610ba7565b5b610f1f84828501610eb1565b91505092915050565b60006020820190508181036000830152610f428184610cda565b905092915050565b6000602082019050610f5f6000830184610c6b565b92915050565b60008115159050919050565b610f7a81610f65565b82525050565b6000606082019050610f956000830186610f71565b610fa26020830185610f71565b610faf6040830184610c6b565b949350505050565b6000602082019050610fcc6000830184610f71565b92915050565b7f456c656374696f6e2068617320656e6465640000000000000000000000000000600082015250565b6000611008601283610c85565b915061101382610fd2565b602082019050919050565b6000602082019050818103600083015261103781610ffb565b9050919050565b7f596f7520617265206e6f74207265676973746572656420746f20766f74650000600082015250565b6000611074601e83610c85565b915061107f8261103e565b602082019050919050565b600060208201905081810360008301526110a381611067565b9050919050565b7f596f75206861766520616c726561647920766f74656400000000000000000000600082015250565b60006110e0601683610c85565b91506110eb826110aa565b602082019050919050565b6000602082019050818103600083015261110f816110d3565b9050919050565b7f496e76616c69642063616e646964617465204944000000000000000000000000600082015250565b600061114c601483610c85565b915061115782611116565b602082019050919050565b6000602082019050818103600083015261117b8161113f565b9050919050565b7f4e487b7100000000000000000000000000000000000000000000000000000000600052603260045260246000fd5b7f4e487b7100000000000000000000000000000000000000000000000000000000600052601160045260246000fd5b60006111eb82610bac565b91507fffffffffffffffffffffffffffffffffffffffffffffffffffffffffffffffff820361121d5761121c6111b1565b5b600182019050919050565b7f4e487b7100000000000000000000000000000000000000000000000000000000600052602260045260246000fd5b6000600282049050600182168061126f57607f821691505b60208210810361128257611281611228565b5b50919050565b7f4f6e6c792061646d696e2063616e20706572666f726d2074686973206163746960008201527f6f6e000000000000000000000000000000000000000000000000000000000000602082015250565b60006112e4602283610c85565b91506112ef82611288565b604082019050919050565b60006020820190508181036000830152611313816112d7565b9050919050565b7f566f74657220697320616c726561647920726567697374657265640000000000600082015250565b6000611350601b83610c85565b915061135b8261131a565b602082019050919050565b6000602082019050818103600083015261137f81611343565b9050919050565b7f456c656374696f6e20616c726561647920656e64656400000000000000000000600082015250565b60006113bc601683610c85565b91506113c782611386565b602082019050919050565b600060208201905081810360008301526113eb816113af565b9050919050565b7f43616e6e6f7420656e6420656c656374696f6e206265666f72652074696d6500600082015250565b6000611428601f83610c85565b9150611433826113f2565b602082019050919050565b600060208201905081810360008301526114578161141b565b9050919050565b7f456c656374696f6e206973207374696c6c206f6e676f696e6700000000000000600082015250565b6000611494601983610c85565b915061149f8261145e565b602082019050919050565b600060208201905081810360008301526114c381611487565b905091905056fea2646970667358221220295e7ecd001162e870dd4c8799b3875535a67918483d94808a9b6d49e11ebfba64736f6c634300080d0033",
  "immutableReferences": {},
  "source": "// SPDX-License-Identifier: MIT\r\npragma solidity ^0.8.0;\r\n\r\ncontract Voting {\r\n    struct Candidate {\r\n        uint id;\r\n        string name;\r\n        uint voteCount;\r\n    }\r\n\r\n    struct Voter {\r\n        bool isRegistered;\r\n        bool hasVoted;\r\n        uint votedCandidateId;\r\n    }\r\n\r\n    address public electionAdmin;\r\n    mapping(address => Voter) public voters;\r\n    Candidate[] public candidates;\r\n    uint public electionEndTime;\r\n    bool public electionEnded;\r\n\r\n    modifier onlyAdmin() {\r\n        require(msg.sender == electionAdmin, \"Only admin can perform this action\");\r\n        _;\r\n    }\r\n\r\n    modifier onlyDuringElection() {\r\n        require(block.timestamp <= electionEndTime, \"Election has ended\");\r\n        _;\r\n    }\r\n\r\n    constructor(uint _electionDurationMinutes) {\r\n        electionAdmin = msg.sender;\r\n        electionEndTime = block.timestamp + (_electionDurationMinutes * 1 minutes);\r\n        electionEnded = false;\r\n    }\r\n\r\n    function registerVoter(address _voter) external onlyAdmin {\r\n        require(!voters[_voter].isRegistered, \"Voter is already registered\");\r\n        voters[_voter].isRegistered = true;\r\n    }\r\n\r\n    function addCandidate(string memory _name) external onlyAdmin {\r\n        candidates.push(Candidate({\r\n            id: candidates.length,\r\n            name: _name,\r\n            voteCount: 0\r\n        }));\r\n    }\r\n\r\n    function vote(uint _candidateId) external onlyDuringElection {\r\n        require(voters[msg.sender].isRegistered, \"You are not registered to vote\");\r\n        require(!voters[msg.sender].hasVoted, \"You have already voted\");\r\n        require(_candidateId < candidates.length, \"Invalid candidate ID\");\r\n\r\n        voters[msg.sender].hasVoted = true;\r\n        voters[msg.sender].votedCandidateId = _candidateId;\r\n        candidates[_candidateId].voteCount++;\r\n    }\r\n\r\n    function endElection() external onlyAdmin {\r\n        require(!electionEnded, \"Election already ended\");\r\n        require(block.timestamp >= electionEndTime, \"Cannot end election before time\");\r\n\r\n        electionEnded = true;\r\n    }\r\n\r\n    function getWinner() external view returns (string memory winnerName) {\r\n        require(electionEnded, \"Election is still ongoing\");\r\n\r\n        uint maxVotes = 0;\r\n        for (uint i = 0; i < candidates.length; i++) {\r\n            if (candidates[i].voteCount > maxVotes) {\r\n                maxVotes = candidates[i].voteCount;\r\n                winnerName = candidates[i].name;\r\n            }\r\n        }\r\n    }\r\n}\r\n",
  "sourcePath": "E:\\FINAL YEAR PROJECT\\e-voting-system\\contracts\\Voting.sol",
  "compiler": {
    "name": "solc",
    "version": "0.8.13+commit.abaa5c0e.Emscripten.clang"
  },
  "schemaVersion": "3.4.16",
  "updatedAt": "2024-09-01T06:57:53.155Z",
  "networkType": "ethereum",
  "devdoc": {
    "kind": "dev",
    "methods": {},
    "version": 1
  },
  "userdoc": {
    "kind": "user",
    "methods": {},
    "version": 1
  }
}